:020000040800F2
:1000000000500020D1010008190200081902000860
:100010001902000819020008190200080000000077
:1000200000000000000000000000000019020008AD
:100030001902000800000000190200081902000857
:100040001902000819020008190200081902000824
:100050001902000819020008190200081902000814
:100060001902000819020008190200081902000804
:1000700019020008190200081902000819020008F4
:1000800019020008190200081902000819020008E4
:1000900019020008190200081902000819020008D4
:1000A00019020008190200081902000819020008C4
:1000B00019020008190200081902000819020008B4
:1000C00019020008190200081902000819020008A4
:1000D0001902000819020008190200081902000894
:1000E00019020008190200081902000800000000A7
:1000F0000000000000000000000000000000000000
:0C01000000000000000000005FF808F1A3
:10010C0010B5054C237833B9044B13B10448AFF345
:10011C0000800123237010BD2C040020000000007F
:10012C008806000808B5034B1BB103490348AFF31D
:10013C00008008BD00000000300400208806000884
:10014C0080B586B000AF1C4B9B691B4A43F0100373
:10015C009361194B9B6903F010033B603B684FF4B0
:10016C0000537B600123BB6002233B613B1D19469E
:10017C00124800F053F801224FF400510F4800F0E0
:10018C00D1F900237B6102E07B6901337B617B69E0
:10019C000B4A9342F8D900224FF40051074800F063
:1001AC00C1F900237B6102E07B6901337B617B69D0
:1001BC00034A9342F8D9DEE70010024000100140D8
:1001CC007F841E0000F023F80B480C490C4A0023D6
:1001DC0002E0D458C4500433C4188C42F9D3094AF1
:1001EC00094C002301E013600432A242FBD300F05F
:1001FC00B1F9FFF7A5FF7047000000202C04002088
:10020C00B00600082C0400206C040020FEE780B42B
:10021C0000AF00BFBD4680BC7047000080B48BB0FF
:10022C0000AF7860396000237B6200233B6269E198
:10023C0001227B6A02FA03F3FB613B681B68FA69D3
:10024C001340BB61BA69FB699A4240F058813B6824
:10025C005B689A4A93425ED0984A934275D8984A02
:10026C00934258D0964A93426FD8964A934252D0B2
:10027C00944A934269D8944A93424CD0924A9342FE
:10028C0063D8924A934246D0904A93425DD8122B3F
:10029C002AD8122B59D801A252F823F023030008B4
:1002AC00FD0200080F030008510300085703000863
:1002BC0057030008570300085703000857030008AA
:1002CC00570300085703000857030008570300089A
:1002DC00570300085703000857030008570300088A
:1002EC000503000819030008794A934213D02CE047
:1002FC003B68DB683B6229E03B68DB6804333B62AC
:10030C0024E03B68DB6808333B621FE03B68DB683A
:10031C000C333B621AE03B689B68002B02D1042330
:10032C003B6213E03B689B68012B05D108233B62C1
:10033C007B68FA691A6109E008233B627B68FA69F9
:10034C005A6103E000233B6200E000BFBB69FF2B56
:10035C0001D87B6801E07B6804337B61BB69FF2BB0
:10036C0002D87B6A9B0002E07B6A083B9B003B61E6
:10037C007B691A680F213B6901FA03F3DB431A40CE
:10038C00396A3B6901FA03F31A437B691A603B68CB
:10039C005B6803F08053002B00F0B1804D4B9B69E0
:1003AC004C4A43F0010393614A4B9B6903F00103F0
:1003BC00BB60BB68484A7B6A9B08023352F8233007
:1003CC00FB607B6A03F003039B000F2202FA03F32A
:1003DC00DB43FA681340FB607B68404A934213D0BE
:1003EC007B683F4A93420DD07B683E4A934207D0CC
:1003FC007B683D4A934201D1032306E0042304E0C9
:10040C00022302E0012300E000237A6A02F00302D7
:10041C0092009340FA681343FB602F497B6A9B0858
:10042C000233FA6841F823203B685B6803F48013BD
:10043C00002B06D02D4B9A682C49BB6913438B605B
:10044C0006E02A4B9A68BB69DB43284913408B6052
:10045C003B685B6803F40013002B06D0234BDA686F
:10046C002249BB691343CB6006E0204BDA68BB69B9
:10047C00DB431E491340CB603B685B6803F40033DD
:10048C00002B06D0194B5A681849BB6913434B60B3
:10049C0006E0164B5A68BB69DB43144913404B60AA
:1004AC003B685B6803F48033002B21D00F4B1A6838
:1004BC000E49BB6913430B6021E000BF00003210F2
:1004CC00000031100000221000002110000012105A
:1004DC000000111000100240000001400008014013
:1004EC00000C0140001001400014014000040140C8
:1004FC000B4B1A68BB69DB43094913400B607B6AE1
:10050C0001337B623B681A687B6A22FA03F3002B87
:10051C007FF48EAE00BF00BF2C37BD4680BC704749
:10052C000004014080B483B000AF78600B467B8040
:10053C0013467B707B78002B03D07A887B681A611A
:10054C0003E07B881A047B681A6100BF0C37BD4638
:10055C0080BC704770B50D4E0D4D761BB61006D095
:10056C00002455F8043B01349847A642F9D1094EB2
:10057C00094D00F083F8761BB61006D0002455F810
:10058C00043B01349847A642F9D170BDA40600087B
:10059C00A4060008AC060008A4060008024B13B120
:1005AC00024800F01FB8704700000000BD050008AD
:1005BC0038B5084B084D5B1B9C1007D0043B1D4401
:1005CC00013C55F804399847002CF9D1BDE8384066
:1005DC0000F05AB8B0060008AC060008704700BF1F
:1005EC00704700BF002301461A46184600F000B8B9
:1005FC002DE9F047DFF880A00646DAF800009846AF
:10060C000F469146FFF7EAFF1A4B1B68D3F8484197
:10061C0024B365681F2D26DC5EB96B1C0235DAF835
:10062C000000636044F82570FFF7DAFF0020BDE896
:10063C00F087012304EB8501C1F88890D4F8882158
:10064C00AB401A43022EC4F88821C1F80881E4D1CA
:10065C00D4F88C211343C4F88C31DEE703F5A6746F
:10066C00C3F84841D5E7DAF80000FFF7B9FF4FF0BF
:10067C00FF30DCE7A006000828040020F8B500BF16
:10068C00F8BC08BC9E467047F8B500BFF8BC08BC67
:04069C009E467047BF
:0406A0000000002036
:0806A400A9050008310100085E
:0406AC000D01000834
:1006B00000000000EC02002054030020BC030020D6
:1006C000000000000000000000000000000000002A
:1006D000000000000000000000000000000000001A
:1006E000000000000000000000000000000000000A
:1006F00000000000000000000000000000000000FA
:1007000000000000000000000000000000000000E9
:1007100000000000000000000000000000000000D9
:1007200000000000000000000000000000000000C9
:1007300000000000000000000000000000000000B9
:1007400000000000000000000000000000000000A9
:100750000000000000000000010000000000000098
:100760000E33CDAB34126DE6ECDE05000B0000005D
:100770000000000000000000000000000000000079
:100780000000000000000000000000000000000069
:100790000000000000000000000000000000000059
:1007A0000000000000000000000000000000000049
:0C0AD000000000000000000048040020AE
:04000005080001D11D
:00000001FF
