:020000040800F2
:1000000000500020550100089D0100089D010008D6
:100010009D0100089D0100089D01000800000000EE
:100020000000000000000000000000009D0100082A
:100030009D010008000000009D0100089D010008CE
:100040009D0100089D0100089D0100089D01000818
:100050009D0100089D0100089D0100089D01000808
:100060009D0100089D0100089D0100089D010008F8
:100070009D0100089D0100089D0100089D010008E8
:100080009D0100089D0100089D0100089D010008D8
:100090009D0100089D0100089D0100089D010008C8
:1000A0009D0100089D0100089D0100089D010008B8
:1000B0009D0100089D0100089D0100089D010008A8
:1000C0009D0100089D0100089D0100089D01000898
:1000D0009D0100089D0100089D0100089D01000888
:1000E0009D0100089D0100089D010008000000001E
:1000F0000000000000000000000000000000000000
:0C01000000000000000000005FF808F1A3
:10010C0010B5054C237833B9044B13B10448AFF345
:10011C0000800123237010BD2C040020000000007F
:10012C00D402000808B5034B1BB103490348AFF3D5
:10013C00008008BD0000000030040020D40200083C
:10014C0080B400AFFEE7000000F023F80B480C4928
:10015C000C4A002302E0D458C4500433C4188C4217
:10016C00F9D3094A094C002301E013600432A2427E
:10017C00FBD300F015F8FFF7E3FF704700000020F9
:10018C002C040020FC0200082C0400206C0400202D
:10019C00FEE780B400AF00BFBD4680BC70470000D6
:1001AC0070B50D4E0D4D761BB61006D0002455F8CB
:1001BC00043B01349847A642F9D1094E094D00F091
:1001CC0083F8761BB61006D0002455F8043B013496
:1001DC009847A642F9D170BDF0020008F002000861
:1001EC00F8020008F0020008024B13B1024800F0BC
:1001FC001FB87047000000000902000838B5084B12
:10020C00084D5B1B9C1007D0043B1D44013C55F86A
:10021C0004399847002CF9D1BDE8384000F05AB8A1
:10022C00FC020008F8020008704700BF704700BFCE
:10023C00002301461A46184600F000B82DE9F04795
:10024C00DFF880A00646DAF8000098460F46914683
:10025C00FFF7EAFF1A4B1B68D3F8484124B36568D3
:10026C001F2D26DC5EB96B1C0235DAF800006360CA
:10027C0044F82570FFF7DAFF0020BDE8F087012372
:10028C0004EB8501C1F88890D4F88821AB401A435F
:10029C00022EC4F88821C1F80881E4D1D4F88C214D
:1002AC001343C4F88C31DEE703F5A674C3F8484158
:1002BC00D5E7DAF80000FFF7B9FF4FF0FF30DCE7C5
:1002CC00EC02000828040020F8B500BFF8BC08BCFC
:1002DC009E467047F8B500BFF8BC08BC9E467047F8
:0402EC0000000020EE
:0802F000F501000831010008CE
:0402F8000D010008EC
:1002FC0000000000EC02002054030020BC0300208E
:10030C0000000000000000000000000000000000E1
:10031C0000000000000000000000000000000000D1
:10032C0000000000000000000000000000000000C1
:10033C0000000000000000000000000000000000B1
:10034C0000000000000000000000000000000000A1
:10035C000000000000000000000000000000000091
:10036C000000000000000000000000000000000081
:10037C000000000000000000000000000000000071
:10038C000000000000000000000000000000000061
:10039C000000000000000000010000000000000050
:1003AC000E33CDAB34126DE6ECDE05000B00000015
:1003BC000000000000000000000000000000000031
:1003CC000000000000000000000000000000000021
:1003DC000000000000000000000000000000000011
:1003EC000000000000000000000000000000000001
:0C071C0000000000000000004804002065
:040000050800015599
:00000001FF
